{
	"data": {
		"bytecode": {
			"linkReferences": {},
			"object": "6080604052348015600e575f80fd5b506101948061001c5f395ff3fe608060405234801561000f575f80fd5b5060043610610029575f3560e01c8063a92100cb1461002d575b5f80fd5b61003561004c565b6040516100439291906100c3565b60405180910390f35b5f805f805f90505b600a811015610080576003810315610073576005810315610080578091505b8080600101915050610054565b505f5b600a81101561009f57808061009790610117565b915050610083565b81819350935050509091565b5f819050919050565b6100bd816100ab565b82525050565b5f6040820190506100d65f8301856100b4565b6100e360208301846100b4565b9392505050565b7f4e487b71000000000000000000000000000000000000000000000000000000005f52601160045260245ffd5b5f610121826100ab565b91507fffffffffffffffffffffffffffffffffffffffffffffffffffffffffffffffff8203610153576101526100ea565b5b60018201905091905056fea26469706673582212205c4f27465fa16697e2ac1303db40273ad38caf187752d25298a99a8d51c8350964736f6c63430008190033",
			"opcodes": "PUSH1 0x80 PUSH1 0x40 MSTORE CALLVALUE DUP1 ISZERO PUSH1 0xE JUMPI PUSH0 DUP1 REVERT JUMPDEST POP PUSH2 0x194 DUP1 PUSH2 0x1C PUSH0 CODECOPY PUSH0 RETURN INVALID PUSH1 0x80 PUSH1 0x40 MSTORE CALLVALUE DUP1 ISZERO PUSH2 0xF JUMPI PUSH0 DUP1 REVERT JUMPDEST POP PUSH1 0x4 CALLDATASIZE LT PUSH2 0x29 JUMPI PUSH0 CALLDATALOAD PUSH1 0xE0 SHR DUP1 PUSH4 0xA92100CB EQ PUSH2 0x2D JUMPI JUMPDEST PUSH0 DUP1 REVERT JUMPDEST PUSH2 0x35 PUSH2 0x4C JUMP JUMPDEST PUSH1 0x40 MLOAD PUSH2 0x43 SWAP3 SWAP2 SWAP1 PUSH2 0xC3 JUMP JUMPDEST PUSH1 0x40 MLOAD DUP1 SWAP2 SUB SWAP1 RETURN JUMPDEST PUSH0 DUP1 PUSH0 DUP1 PUSH0 SWAP1 POP JUMPDEST PUSH1 0xA DUP2 LT ISZERO PUSH2 0x80 JUMPI PUSH1 0x3 DUP2 SUB ISZERO PUSH2 0x73 JUMPI PUSH1 0x5 DUP2 SUB ISZERO PUSH2 0x80 JUMPI DUP1 SWAP2 POP JUMPDEST DUP1 DUP1 PUSH1 0x1 ADD SWAP2 POP POP PUSH2 0x54 JUMP JUMPDEST POP PUSH0 JUMPDEST PUSH1 0xA DUP2 LT ISZERO PUSH2 0x9F JUMPI DUP1 DUP1 PUSH2 0x97 SWAP1 PUSH2 0x117 JUMP JUMPDEST SWAP2 POP POP PUSH2 0x83 JUMP JUMPDEST DUP2 DUP2 SWAP4 POP SWAP4 POP POP POP SWAP1 SWAP2 JUMP JUMPDEST PUSH0 DUP2 SWAP1 POP SWAP2 SWAP1 POP JUMP JUMPDEST PUSH2 0xBD DUP2 PUSH2 0xAB JUMP JUMPDEST DUP3 MSTORE POP POP JUMP JUMPDEST PUSH0 PUSH1 0x40 DUP3 ADD SWAP1 POP PUSH2 0xD6 PUSH0 DUP4 ADD DUP6 PUSH2 0xB4 JUMP JUMPDEST PUSH2 0xE3 PUSH1 0x20 DUP4 ADD DUP5 PUSH2 0xB4 JUMP JUMPDEST SWAP4 SWAP3 POP POP POP JUMP JUMPDEST PUSH32 0x4E487B7100000000000000000000000000000000000000000000000000000000 PUSH0 MSTORE PUSH1 0x11 PUSH1 0x4 MSTORE PUSH1 0x24 PUSH0 REVERT JUMPDEST PUSH0 PUSH2 0x121 DUP3 PUSH2 0xAB JUMP JUMPDEST SWAP2 POP PUSH32 0xFFFFFFFFFFFFFFFFFFFFFFFFFFFFFFFFFFFFFFFFFFFFFFFFFFFFFFFFFFFFFFFF DUP3 SUB PUSH2 0x153 JUMPI PUSH2 0x152 PUSH2 0xEA JUMP JUMPDEST JUMPDEST PUSH1 0x1 DUP3 ADD SWAP1 POP SWAP2 SWAP1 POP JUMP INVALID LOG2 PUSH5 0x6970667358 0x22 SLT KECCAK256 TLOAD 0x4F 0x27 CHAINID PUSH0 LOG1 PUSH7 0x97E2AC1303DB40 0x27 GASPRICE 0xD3 DUP13 0xAF XOR PUSH24 0x52D25298A99A8D51C8350964736F6C634300081900330000 "
		},
		"gasEstimates": {
			"creation": {
				"codeDepositCost": "80800",
				"executionCost": "127",
				"totalCost": "80927"
			},
			"external": {
				"loop()": "infinite"
			}
		},
		"methodIdentifiers": {
			"loop()": "a92100cb"
		}
	},
	"abi": [
		{
			"inputs": [],
			"name": "loop",
			"outputs": [
				{
					"internalType": "uint256",
					"name": "",
					"type": "uint256"
				},
				{
					"internalType": "uint256",
					"name": "",
					"type": "uint256"
				}
			],
			"stateMutability": "pure",
			"type": "function"
		}
	]
}